{
  "_format": "hh-sol-artifact-1",
  "contractName": "EventPurchase",
  "sourceName": "contracts/Dividend.sol",
  "abi": [
    {
      "inputs": [
        {
          "internalType": "uint256",
          "name": "risk",
          "type": "uint256"
        }
      ],
      "name": "calculateFinalReward",
      "outputs": [
        {
          "internalType": "uint256",
          "name": "finalReward",
          "type": "uint256"
        }
      ],
      "stateMutability": "view",
      "type": "function"
    },
    {
      "inputs": [],
      "name": "getPrices",
      "outputs": [
        {
          "internalType": "uint256[]",
          "name": "",
          "type": "uint256[]"
        }
      ],
      "stateMutability": "view",
      "type": "function"
    },
    {
      "inputs": [],
      "name": "getQuantities",
      "outputs": [
        {
          "internalType": "uint256[]",
          "name": "",
          "type": "uint256[]"
        }
      ],
      "stateMutability": "view",
      "type": "function"
    },
    {
      "inputs": [
        {
          "internalType": "uint256",
          "name": "",
          "type": "uint256"
        }
      ],
      "name": "prices",
      "outputs": [
        {
          "internalType": "uint256",
          "name": "",
          "type": "uint256"
        }
      ],
      "stateMutability": "view",
      "type": "function"
    },
    {
      "inputs": [
        {
          "internalType": "uint256",
          "name": "",
          "type": "uint256"
        }
      ],
      "name": "quantities",
      "outputs": [
        {
          "internalType": "uint256",
          "name": "",
          "type": "uint256"
        }
      ],
      "stateMutability": "view",
      "type": "function"
    }
  ],
  "bytecode": "0x60806040526040518060600160405280606461ffff16815260200160c861ffff16815260200161012c61ffff16815250600090600361003f92919061008a565b506040518060600160405280600260ff168152602001600360ff168152602001600460ff1681525060019060036100779291906100dd565b5034801561008457600080fd5b5061014c565b8280548282559060005260206000209081019282156100cc579160200282015b828111156100cb578251829061ffff169055916020019190600101906100aa565b5b5090506100d9919061012f565b5090565b82805482825590600052602060002090810192821561011e579160200282015b8281111561011d578251829060ff169055916020019190600101906100fd565b5b50905061012b919061012f565b5090565b5b80821115610148576000816000905550600101610130565b5090565b6106898061015b6000396000f3fe608060405234801561001057600080fd5b50600436106100575760003560e01c8063792b1ed91461005c578063a41254031461007a578063bc31c1c1146100aa578063bd9a548b146100da578063f144214a146100f8575b600080fd5b610064610128565b60405161007191906104a6565b60405180910390f35b610094600480360381019061008f91906104f9565b610180565b6040516100a19190610535565b60405180910390f35b6100c460048036038101906100bf91906104f9565b6101a4565b6040516100d19190610535565b60405180910390f35b6100e26101c8565b6040516100ef91906104a6565b60405180910390f35b610112600480360381019061010d91906104f9565b610220565b60405161011f9190610535565b60405180910390f35b6060600180548060200260200160405190810160405280929190818152602001828054801561017657602002820191906000526020600020905b815481526020019060010190808311610162575b5050505050905090565b6001818154811061019057600080fd5b906000526020600020016000915090505481565b600081815481106101b457600080fd5b906000526020600020016000915090505481565b6060600080548060200260200160405190810160405280929190818152602001828054801561021657602002820191906000526020600020905b815481526020019060010190808311610202575b5050505050905090565b6000806000905060005b600080549050811015610299576001818154811061024b5761024a610550565b5b90600052602060002001546000828154811061026a57610269610550565b5b906000526020600020015461027f91906105ae565b8261028a91906105f0565b9150808060010191505061022a565b5060008360646102a991906105f0565b90506000808054905067ffffffffffffffff8111156102cb576102ca610624565b5b6040519080825280602002602001820160405280156102f95781602001602082028036833780820191505090505b50905060005b60008054905081101561036257826000828154811061032157610320610550565b5b906000526020600020015461033691906105ae565b82828151811061034957610348610550565b5b60200260200101818152505080806001019150506102ff565b506000935060005b6001805490508110156103d55781818151811061038a57610389610550565b5b6020026020010151600182815481106103a6576103a5610550565b5b90600052602060002001546103bb91906105ae565b856103c691906105f0565b9450808060010191505061036a565b50505050919050565b600081519050919050565b600082825260208201905092915050565b6000819050602082019050919050565b6000819050919050565b61041d8161040a565b82525050565b600061042f8383610414565b60208301905092915050565b6000602082019050919050565b6000610453826103de565b61045d81856103e9565b9350610468836103fa565b8060005b838110156104995781516104808882610423565b975061048b8361043b565b92505060018101905061046c565b5085935050505092915050565b600060208201905081810360008301526104c08184610448565b905092915050565b600080fd5b6104d68161040a565b81146104e157600080fd5b50565b6000813590506104f3816104cd565b92915050565b60006020828403121561050f5761050e6104c8565b5b600061051d848285016104e4565b91505092915050565b61052f8161040a565b82525050565b600060208201905061054a6000830184610526565b92915050565b7f4e487b7100000000000000000000000000000000000000000000000000000000600052603260045260246000fd5b7f4e487b7100000000000000000000000000000000000000000000000000000000600052601160045260246000fd5b60006105b98261040a565b91506105c48361040a565b92508282026105d28161040a565b915082820484148315176105e9576105e861057f565b5b5092915050565b60006105fb8261040a565b91506106068361040a565b925082820190508082111561061e5761061d61057f565b5b92915050565b7f4e487b7100000000000000000000000000000000000000000000000000000000600052604160045260246000fdfea2646970667358221220c619d93552484970be1509a7d3289462b59dd66d24c3fbdae330d9ae275d635664736f6c634300081c0033",
  "linkReferences": {},
  "deployedLinkReferences": {}
}